{
  "_format": "hh-sol-artifact-1",
  "contractName": "EventRegistration",
  "sourceName": "contracts/EventRegistration.sol",
  "abi": [
    {
      "inputs": [],
      "stateMutability": "nonpayable",
      "type": "constructor"
    },
    {
      "anonymous": false,
      "inputs": [
        {
          "indexed": true,
          "internalType": "address",
          "name": "owner",
          "type": "address"
        },
        {
          "indexed": false,
          "internalType": "uint256",
          "name": "amount",
          "type": "uint256"
        }
      ],
      "name": "FundsWithdrawn",
      "type": "event"
    },
    {
      "anonymous": false,
      "inputs": [
        {
          "indexed": true,
          "internalType": "address",
          "name": "user",
          "type": "address"
        },
        {
          "indexed": false,
          "internalType": "uint256",
          "name": "time",
          "type": "uint256"
        }
      ],
      "name": "Registered",
      "type": "event"
    },
    {
      "inputs": [],
      "name": "REGISTRATION_FEE",
      "outputs": [
        {
          "internalType": "uint256",
          "name": "",
          "type": "uint256"
        }
      ],
      "stateMutability": "view",
      "type": "function"
    },
    {
      "inputs": [
        {
          "internalType": "address",
          "name": "_user",
          "type": "address"
        }
      ],
      "name": "checkRegistration",
      "outputs": [
        {
          "internalType": "bool",
          "name": "",
          "type": "bool"
        }
      ],
      "stateMutability": "view",
      "type": "function"
    },
    {
      "inputs": [],
      "name": "getAllParticipants",
      "outputs": [
        {
          "internalType": "address[]",
          "name": "",
          "type": "address[]"
        }
      ],
      "stateMutability": "view",
      "type": "function"
    },
    {
      "inputs": [],
      "name": "getContractBalance",
      "outputs": [
        {
          "internalType": "uint256",
          "name": "",
          "type": "uint256"
        }
      ],
      "stateMutability": "view",
      "type": "function"
    },
    {
      "inputs": [],
      "name": "getParticipantCount",
      "outputs": [
        {
          "internalType": "uint256",
          "name": "",
          "type": "uint256"
        }
      ],
      "stateMutability": "view",
      "type": "function"
    },
    {
      "inputs": [],
      "name": "getRegistrationFee",
      "outputs": [
        {
          "internalType": "uint256",
          "name": "",
          "type": "uint256"
        }
      ],
      "stateMutability": "pure",
      "type": "function"
    },
    {
      "inputs": [
        {
          "internalType": "address",
          "name": "",
          "type": "address"
        }
      ],
      "name": "isRegistered",
      "outputs": [
        {
          "internalType": "bool",
          "name": "",
          "type": "bool"
        }
      ],
      "stateMutability": "view",
      "type": "function"
    },
    {
      "inputs": [],
      "name": "owner",
      "outputs": [
        {
          "internalType": "address",
          "name": "",
          "type": "address"
        }
      ],
      "stateMutability": "view",
      "type": "function"
    },
    {
      "inputs": [],
      "name": "register",
      "outputs": [],
      "stateMutability": "payable",
      "type": "function"
    },
    {
      "inputs": [],
      "name": "withdrawFunds",
      "outputs": [],
      "stateMutability": "nonpayable",
      "type": "function"
    }
  ],
  "bytecode": "0x608060405234801561001057600080fd5b50600080546001600160a01b03191633179055610692806100326000396000f3fe6080604052600436106100915760003560e01c80636f9fb98a116100595780636f9fb98a1461011b5780638da5cb5b1461012e578063ad60572914610166578063c3c5a5471461017b578063e2a41283146101bb57600080fd5b80630946e80714610096578063195ec9ee146100bf5780631aa3a008146100e157806324600fc3146100eb57806364b4f75114610100575b600080fd5b3480156100a257600080fd5b50662386f26fc100005b6040519081526020015b60405180910390f35b3480156100cb57600080fd5b506100d46101f4565b6040516100b691906105b8565b6100e9610256565b005b3480156100f757600080fd5b506100e96103f3565b34801561010c57600080fd5b506100ac662386f26fc1000081565b34801561012757600080fd5b50476100ac565b34801561013a57600080fd5b5060005461014e906001600160a01b031681565b6040516001600160a01b0390911681526020016100b6565b34801561017257600080fd5b506001546100ac565b34801561018757600080fd5b506101ab610196366004610605565b60026020526000908152604090205460ff1681565b60405190151581526020016100b6565b3480156101c757600080fd5b506101ab6101d6366004610605565b6001600160a01b031660009081526002602052604090205460ff1690565b6060600380548060200260200160405190810160405280929190818152602001828054801561024c57602002820191906000526020600020905b81546001600160a01b0316815260019091019060200180831161022e575b5050505050905090565b662386f26fc1000034146102d75760405162461bcd60e51b815260206004820152603f60248201527f4576656e74526567697374726174696f6e3a20496e636f72726563742070617960448201527f6d656e7420616d6f756e742e2052657175697265643a20302e3031204554480060648201526084015b60405180910390fd5b3360009081526002602052604090205460ff161561034d5760405162461bcd60e51b815260206004820152602d60248201527f4576656e74526567697374726174696f6e3a204164647265737320616c72656160448201526c191e481c9959da5cdd195c9959609a1b60648201526084016102ce565b336000818152600260205260408120805460ff191660019081179091556003805480830182559083527fc2575a0e9e593c00f959f8c92f12db2869c3395a3b0502d05e2516446f71f85b0180546001600160a01b031916909317909255815491906103b783610635565b909155505060405142815233907f6f3bf3fa84e4763a43b3d23f9d79be242d6d5c834941ff4c1111b67469e1150c9060200160405180910390a2565b6000546001600160a01b031633146104665760405162461bcd60e51b815260206004820152603060248201527f4576656e74526567697374726174696f6e3a204f6e6c79206f776e657220636160448201526f6e2077697468647261772066756e647360801b60648201526084016102ce565b47806104c45760405162461bcd60e51b815260206004820152602760248201527f4576656e74526567697374726174696f6e3a204e6f2066756e647320746f20776044820152666974686472617760c81b60648201526084016102ce565b600080546040516001600160a01b039091169083908381818185875af1925050503d8060008114610511576040519150601f19603f3d011682016040523d82523d6000602084013e610516565b606091505b50509050806105725760405162461bcd60e51b815260206004820152602260248201527f4576656e74526567697374726174696f6e3a205472616e73666572206661696c604482015261195960f21b60648201526084016102ce565b6000546040518381526001600160a01b03909116907feaff4b37086828766ad3268786972c0cd24259d4c87a80f9d3963a3c3d999b0d9060200160405180910390a25050565b6020808252825182820181905260009190848201906040850190845b818110156105f95783516001600160a01b0316835292840192918401916001016105d4565b50909695505050505050565b60006020828403121561061757600080fd5b81356001600160a01b038116811461062e57600080fd5b9392505050565b60006001820161065557634e487b7160e01b600052601160045260246000fd5b506001019056fea26469706673582212201dd298218ebe317c6a364df557ad2a4f693b7b305a4abe43f645ae40890f634564736f6c63430008130033",
  "linkReferences": {},
  "deployedLinkReferences": {}
}